S0200000415652343237393344414C4932536C617665537461636B302E73726563A5
S11300000C94BC020C94D9020C9481040C94D90273
S11300100C94E4020C94D9020C94D9020C94D902E5
S11300200C9405160C94D9020C94D9020C94D902A0
S11300300C94D9020C948A030C94D9020C94D9021E
S11300400C94D9020C94D9020C94D9020C94D902C0
S11300500C94D9020C94D9020C94D9020C94D902B0
S11300600C94D9020C94D9020C94D9020C94D902A0
S11300700C94D9020C94D9020C94D902B007D40779
S1130080160816081608160816081608160816087C
S1130090F607FA07FE0702080608160816081608E7
S11300A016081608160816081608160816080A0868
S11300B00E081208AD07AE08BE09B908BE09BE088D
S11300C0BE09F008BE091309BE092009BE09BE090C
S11300D0BE09BE09BE092C09BE093109BE0936098B
S11300E0BE093B09BE096409BE096F09BE09BE0900
S11300F0BE09BE09BE097C09BE098309BE09880977
S1130100BE098D09BE098F09FB0B0A0C250C460C90
S1130110790CB10C020DE90C540D290D650E800EFD
S1130120D80E320F520F740F9F0FCB0FF70F2A10F8
S11301303410D013D013D013D013D0134110411066
S11301404110411041104110411041104110411023
S11301504110411041104110411041105610AF1090
S1130160B710C410CF10F610D013D013D013D0137F
S1130170101143117A1187119411A811C211D013CF
S1130180D013D013D013D013D013D013D013D01353
S1130190D013D013D013D013D013D013E211E21123
S11301A0E211E211E211E211E211E211E211E211B3
S11301B0E211E211E211E211E211E211F311F31181
S11301C0F311F311F311F311F311F311F311F3110B
S11301D0F311F311F311F311F311F31103120312D9
S11301E00312031203120312031203121A121A1235
S11301F01A121A121A121A121A121A12311231126D
S113020031123112311231123112311249124912A2
S113021049124912491249124912491261128B12A8
S1130220D013D013D013D013D013D013D013D013B2
S1130230D013D013D013D013D013D0139212610E55
S1130240A712AF12B712BF12D512DD12E312E912D0
S1130250ED12F312FC12021308130E1312132813D7
S11302602C13321338133E134B13D0135413D013DF
S11302706113D013D013D013D013D013691369139F
S1130280691369136913691369136913691369138A
S11302906913691369136913691369137313791360
S11302A07F1385138B139113FC1402156F15881596
S11302B01C1568157C158815000064B91283B25C9E
S11302C08941592EC5202B176210960B3108CB0596
S11302D01904E5020C027301000031B78981995BAE
S11302E0C540CC2D6220E6163110730B1908BA05EF
S11302F00C04DD0206026E01000404040405050575
S11303000505050506060606060607070707070787
S113031008080808090909090A0A0A0A0B0B0B0C40
S11303200C0C0D0D0D0E0E0E0F0F101010111112DE
S11303301213131415151616171818191A1A1B1C4C
S11303401C1D1E1F202122222324252627292A2B77
S11303502C2D2F303132343537383A3B3D3F414232
S11303604446484A4C4E505355575A5C5F61646743
S11303706A6C6F7376797C8083878B8E92969B9F51
S1130380A3A8ACB1B6BBC0C6CBD1D7DDE3E9EFF6C9
S1130390FD040B121A222A323B434C555F69727DCD
S11303A087929DA9B4C1CDDAE7F402101F2E3D4D0A
S11303B05E6E8091A4B6C9DDF1061C324860789067
S11303C0A9C3DEF91633506F8EAFD0F215395E84AF
S11303D0ABD3FC27527FADDD0D3F73A7DE154F89EC
S11303E0C6044486C90E569FEA3787D92D83DB3766
S11303F094F457BD2591FFFF0000000000000000A9
S113040000000000000000000000000000000000E8
S113041000000000000000000000000000000000D8
S113042000000000000000000000000000000000C8
S113043000000000000000000000000000000000B8
S113044000000000101111111111111111111111DD
S113045011222222222222223233333333334444E0
S11304604444555555656666777787889899A9AA4F
S1130470BABBCCDCDDEEFFFF9696969696969696E2
S1130480969696969696969694918F8C8E88878655
S11304908482807F7D7C7A797877767473727170C8
S11304A06F6E6D6D6C6B6A696968676766656464B5
S11304B063636261605F5F5F5E5E5D5D5C5C5B5A4F
S11304C05A5A5959585857565655555555545453C0
S11304D05353525251515050504F4F4F4E4E4E4D18
S11304E04D4D4C4C4C4B4B4B4B4A4A4A494949485D
S11304F04848474747464646464645454545444499
S113050044434343434242424141414141414040CB
S11305104040403F3F3F3F3E3E3E3E3D3D3D3D3CF3
S11305203C3C3B3B3B3B3B3B3B3B3A3A3A3939391E
S1130530393938383838383837373737373737363E
S1130540363636363535353535353434343433335B
S1130550333333333232323232323131313130307B
S113056030303030302F2F2F2F2F2F2F2E2E2E2E96
S11305702E2E2E2E2E2D2D2D11241FBECFEFCDBFAE
S1130580DFE3DEBF18E3A0E0B8E3EEE4F3E302C088
S113059005900D92A431B107D9F728E3A4E1B8E39B
S11305A001C01D92AF3CB207E1F70E9442160C94C1
S11305B0A5190C940000E0E2F4E082E081838583D5
S11305C081E08283838B08951F920F920FB60F925E
S11305D011248F939F93EF93FF93E0E2F4E081E083
S11305E0818710924A0A10924B0A80858170809309
S11305F0353880913338811113C080913538811199
S11306007EC0E0E4FAE081E08683858310921638A8
S11306108FEF8093333810923838109236386FC089
S1130620809133388F3FA1F480913738893068F056
S113063080913738823148F481E080933338809157
S113064016388F5F809316385AC01092333857C0CB
S113065080913338813108F050C08091373882312D
S113066068F08091163880FF04C08E5F809316383E
S113067015C0109233388232A8F441C080913738C3
S1130680893050F080913738823130F480911638B7
S11306908F5F8093163802C01092333880911638D9
S11306A0823218F091E19093333880FF28C0869508
S11306B0893078F480913838880F80933838809165
S11306C035388823E1F08091383881608093383858
S11306D016C090913638990F9093363890913538EA
S11306E0992369F09091363891609093363880312F
S11306F031F482E18093333802C01092333810927F
S11307003738FF91EF919F918F910F900FBE0F900B
S11307101F9018951F920F920FB60F9211242F93CA
S11307203F934F935F936F937F938F939F93AF9375
S1130730BF93CF93DF93EF93FF9381E08093460AB7
S11307400E949D158093343880913338882309F4AE
S113075049C0809137388F5F809337388091333820
S11307608231D1F480913538882399F080913738DB
S1130770823408F4ADC010923338809138380E9426
S11307809715809136380E949A1581E00E94A3152E
S11307909FC0109233389CC0809133388131D1F49A
S11307A080913538882399F080913738853308F45F
S11307B08FC010923338809138380E9497158091F9
S11307C036380E949A1581E00E94A31581C01092C8
S11307D033387EC080913738823208F479C0109261
S11307E0333876C080913438882309F46FC00E946E
S11307F0A61580933238D0911538C0911438CF5F44
S113080080913438813109F43FC0D1110CC0C1301A
S113081021F482E08093260450C0CE3051F582E06A
S1130820809325044AC08091323890E028E030E07B
S11308302D1B310902C0959587952A95E2F780FF13
S11308400CC0C13021F482E08093260436C0CE303F
S113085081F482E08093250430C0C13021F482E029
S1130860809325042AC0CE3021F482E080932604AC
S113087024C0CA3111F5DF5FD930F0F081E18093F3
S11308803438C0E0D0E019C0C43320F482E080934F
S1130890250413C06C2F70E080E090E00E94BE1726
S11308A020E030E04AE652E40E944A1888232CF003
S11308B010923438C0E001C0C0E0809134380E9406
S11308C0A015C0931438D093153802C01092450A6D
S11308D0FF91EF91DF91CF91BF91AF919F918F9154
S11308E07F916F915F914F913F912F910F900FBE28
S11308F00F901F90189581E0809388008093890061
S113090008951F920F920FB60F9211242F933F93C5
S11309104F935F936F937F938F939F93AF93BF9303
S1130920EF93FF9381E080938A0080E090E00E943F
S1130930C31588E080930604FF91EF91BF91AF91B6
S11309409F918F917F916F915F914F913F912F91E3
S11309500F900FBE0F901F901895809180148F3FB9
S1130960A9F0E1E8F4E121E030E081918F3F39F42E
S1130970222361F0F901E158FB4E808108952F5F35
S11309803F4F2032310589F780919F1408951F93BA
S1130990CF93DF93EC01809160148F3F51F4E1E633
S11309A0F4E131E091919F3F29F43F5F3032D1F778
S11309B001C030E0A0E0B4E12BC021912F3F21F42D
S11309C09F5F9032D1F702C09032E9F4303209F4DB
S11309D043C0E0E6F4E181918D93E03884E1F807C7
S11309E0D1F7E0E0F0E1828181FDFDCFF8948DE95B
S11309F084BF81E0809300107894E0E0F0E182818C
S1130A0081FDFDCF0CC09096A03684E1B80739F083
S1130A108C918F3FC1F7FD01319691E0CECF162F17
S1130A200E94AD048883612F70E06150710916162D
S1130A301706A4F490E0292F30E0F901FC5E408110
S1130A40FE01E20FF31F41839F5F292F30E0261739
S1130A5037078CF381E003C080E001C081E0DF91BF
S1130A60CF911F910895909180149F3F59F5A0E86C
S1130A70B4E18C93E0E0F0E1828181FDFDCFF89454
S1130A808DE984BF81E08093001078940895E03A62
S1130A9094E1F907C9F480938014E1E8F4E18FEF5D
S1130AA08193E03A94E1F907D9F7E0E0F0E182813B
S1130AB081FDFDCFF8948DE984BF83E0809300101D
S1130AC078940895E1E8F4E1DF0191919F3FF9F60C
S1130AD0D0CF0F931F93CF93DF938C01FA018081C2
S1130AE0882329F0108281E0809317380AC080910E
S1130AF017388230A9F0833009F46CC0813009F0D2
S1130B0089C0D801CC910E94AD04C81719F08C2F6C
S1130B100E94330582E080931738109218387AC007
S1130B2080911838482F50E040565F4F440F551FAE
S1130B3042955295507F5427407F54279A012F5F46
S1130B403341823030F0605410921838611105C07E
S1130B503AC08F5F8093183860E2DA01E9E3F8E382
S1130B60EF0190E07D9179939F5F9617D8F3662308
S1130B7051F1D801A20FB31F30E090E02D91808194
S1130B80821711F0208331E09F5F31969613F6CFE0
S1130B903323C9F0A9E3B8E3FA01405E5F4F8D91B6
S1130BA081934E175F07D9F7E0E0F0E1828181FD80
S1130BB0FDCFF8948DE984BF83E08093001078948E
S1130BC08093173827C080911838811123C0109260
S1130BD0173820C0A9E3B8E3E0E6F4E18D918193EE
S1130BE0E03884E1F807D1F7E0E0F0E1828181FDAB
S1130BF0FDCFF8948DE984BF83E08093001078944E
S1130C0080911838811103C01092173803C082E014
S1130C1080931738DF91CF911F910F9108950F930F
S1130C201F93CF930E94AE158C010E94AC15C82F60
S1130C300E94A915A8016C2F0E946905CF911F91EC
S1130C400F9108958F929F92AF92BF92CF92DF92AD
S1130C50EF92FF92CF93DF93C82F0E949516809353
S1130C60643810921D3810923038CF3F31F410920E
S1130C700E3881E08093223847C110920E3890914B
S1130C80B53897779093B538C11110C0D0915F38BB
S1130C9080916338D81305C08AE080932238D0E06D
S1130CA044C094E090932238D81B3FC0C093593875
S1130CB020916338C21768F480915B388160809317
S1130CC05B3898609093B538D0915F38D21700F5AF
S1130CD00CC08C1720F498609093B538C82FD0912D
S1130CE05F38DC17A0F4C21306C08AE08093223870
S1130CF0C22FD0E01AC0D21710F420935F3882E0DC
S1130D008093223880915F38DC2FD81B0EC02C2FA3
S1130D102D1730F483E080932238D21BC22F05C0F4
S1130D2081E080932238C22FD0E080911C38882340
S1130D30E9F080915F3881110DC0C0935F3887E07E
S1130D4080932238C093603880915B3881608093AF
S1130D505B3817C088EC8093BB38C09360388091AF
S1130D605B38816080935B3881E062C0E0E6F8E341
S1130D708681C08390915B38916090935B38811138
S1130D8057C08091C338811139C0E0916838E111AE
S1130D9009C0C0935F3887E08093223820E030E0B8
S1130DA0A90193C020916738822F90E0A0E0B0E0C1
S1130DB09C01AD012F5F3F4F4F4F5F4FA8EEB3E053
S1130DC00E9417199B01AC01F0E0EE0FFF1FEC5FCE
S1130DD0F74CA081B1810E9417199B01AC0160E01E
S1130DE070E080E094E10E94E01881E080931B3879
S1130DF08091B53880618093B53881C048EE53E066
S1130E00849F9001859F300D1124032E000C440B08
S1130E10550B60E070E080E090E50E94E01881E00E
S1130E2080931B388091B53880618093B53867C052
S1130E30682F70E0FB01EE0FFF1FE854FD4F259172
S1130E40349140E050E091E090931B389091B53894
S1130E5090619093B538909122389A30B1F580FF23
S1130E6019C061507109759567958CEB92E0A0E00B
S1130E70B0E004C0880F991FAA1FBB1F6A95D2F760
S1130E808093BF389093C038A093C138B093C238D0
S1130E901CC080E0869581500F2EF8EECF2EF3E033
S1130EA0DF2EE12CF12CF02D4601570104C0880CF3
S1130EB0991CAA1CBB1C8A95D2F78092BF389092C9
S1130EC0C038A092C138B092C238AD2FB0E00E94B1
S1130ED01719DC01CB01B695A79597958795809353
S1130EE0B7389093B838A093B938B093BA38809192
S1130EF0B53881FD09C084608093B53805C0809100
S1130F0022388A3011F7C5CFDF91CF91FF90EF904F
S1130F10DF90CF90BF90AF909F908F900895DC01A9
S1130F201196EC9180E28E0F853018F4662309F453
S1130F3085C080911D38882309F483C0109230380D
S1130F408E2F90E0FC01E35EF109ED31F10508F02C
S1130F506DC0E25CFF4F0C94021981E090E06BC01D
S1130F6080912138823008F064C080938838909151
S1130F701A389078811108C080912F388F7E809321
S1130F802F389093873808C080912F3880618093E0
S1130F902F3890619093873880915B38816080937B
S1130FA05B3880E09FEF47C080912138811103C0F6
S1130FB01092C3380FC090918238891718F4909317
S1130FC0C33808C08C3118F48093C33803C08BE154
S1130FD08093C3388091C3388093833880915B3881
S1130FE0816080935B3880E09FEF25C080918438D6
S1130FF090E021C08091883890E01DC080918538B0
S113100090E019C08091B63890E015C080911A38EC
S113101090E011C080912F3890E00DC08091C338CA
S113102090E009C08091823890E005C080E09FEF95
S113103002C080E09FEF10921D38089580E090EF89
S1131040089580E09FEF0895BF92CF92DF92EF92D0
S1131050FF920F931F93CF93DF93FC01208139E517
S1131060320F353168F4C0902B38D0902C38E09092
S11310702D38F0902E38CD28CE28CF2809F496C1EB
S113108030912638332361F0253A51F010922638F6
S113109010922738109228381092293810922A3842
S11310A020911E38213071F400912B3810912C3886
S11310B020912D3830912E38012B022B032B11F463
S11310C010921E38A62FEC01E0E6F8E3048510E048
S11310D020E030E0980111270027438550E060E0CC
S11310E070E0762F652F542F4427040F151F261FF9
S11310F0371F8285080F111D211D311DECEBF8E30C
S1131100428150E060E070E07A01DD24CC248181EA
S1131110482F50E060E070E0762F652F542F44276D
S11311204C0D5D1D6E1D7F1D8081480F511D611D7D
S1131130711DB9818B2F8E7790E095958795B82E88
S1131140E881CE2ED12CF601E15AF109E932F105FC
S113115008F014C1E55AFF4F0C94021910922B3871
S113116010922C3810922D3810922E3880E09FEF78
S113117007C1B093213880E09FEF02C1AA2309F48C
S113118018C1BB2399F0BF3F39F481E090916938CD
S11311909F3F51F080E008C0B178B130B1F481E0F4
S11311A0909169389B1180E0882379F080EA9BEB69
S11311B0ADE0B0E080932B3890932C38A0932D3879
S11311C0B0932E3880E09FEFDBC010922B38109242
S11311D02C3810922D3810922E3880E09FEFD0C01A
S11311E0AA2309F4E9C00E94CD15CB010E9473190A
S11311F00E946E1900E618E3F80184870E946E19B4
S1131200F80183870E94D415CB010E9473190E94B0
S11312106E19F801828780915B38816080935B3816
S113122080E09FEFADC080911E388111D2C040177D
S113123051076207730708F4CFC08FEF90E0A0C096
S1131240041715072607370709F0C9C081E0809302
S11312501E3880E09FEF94C0B093BE3880E09FEFCB
S11312608FC0B093BD3880E09FEF8AC0B093BC3884
S113127080E09FEF85C0BF3F81F48FEF8093693892
S113128080915B38816080935B388091B53880644D
S11312908093B53880E09FEF73C0041715072607C5
S11312A0370709F09FC0B0FFA0C0809369388091D0
S11312B05B38816080935B388091B5388F7B8093F5
S11312C0B53880E09FEF5CC0B178B13009F090C0D0
S11312D080916938B8128FC08FEF90E051C0041725
S11312E015072607370709F089C08091693890E00F
S11312F0880F991F816044C0B63009F088C081E02E
S113130080931D3884C0B093203880E09FEF38C0AC
S1131310B0931F3880E09FEF33C091E001C090E0AC
S113132080913038882309F46CC080912038813052
S113133009F06AC0209121382230A8F02230F9F156
S11313408DEF820F8E3090F48091A6388535B9F1F7
S113135080E09FEF0DC0898190E030915B3834606C
S113136030935B3805C080E09FEF02C080E09FEFC0
S11313702F3F31F02F5F2093213802C080E09FEF90
S113138010921D3820913038222309F443C028815B
S1131390233A09F43FC0322F3B7F333CD9F1253C3B
S11313A0C9F1293CB9F11092303834C080E09FEF84
S11313B031C080E090EF2EC080E090EF2BC0E22F90
S11313C0F0E0EC55F74CB0839111C5CF80E09FEF6E
S11313D0C4CF80E09FEFD4CF80E09FEFD1CF80E0F7
S11313E09FEFCECF80E09FEFCBCF80E09FEFC8CFC1
S11313F080E09FEFC5CF80E09FEFC2CF80E09FEFFA
S1131400BFCF80E09FEFBCCF80E09FEFB9CF80E0FB
S11314109FEFB8CFDF91CF911F910F91FF90EF9085
S1131420DF90CF90BF900895809161388E3F09F08E
S11314304EC0809162388E3F09F04BC0E0E6F8E37D
S1131440938181A1981347C0809164388E3F09F03D
S113145044C080916538873009F041C08091663876
S113146081113FC08091673881113DC080916838F7
S113147081113BC080916C388F3FC9F580916B38E6
S11314808F3FB9F580916A388F3FA9F580917E38F6
S1131490811133C080917F38811131C0EEE6F8E3C9
S11314A08EE798E321912F3F61F5E817F907D1F70B
S11314B080912F3884FD27C080918838811125C000
S11314C081E090918338992309F180E0089580E0C8
S11314D0089580E0089580E0089580E0089580E014
S11314E0089580E0089580E0089580E0089580E004
S11314F0089580E0089580E0089580E0089580E0F4
S1131500089580E0089580E0089580E00895909122
S11315108838911112C0E82FE695F0E0E850FC4FAE
S1131520949180FD02C09F7002C092959F70E82F35
S1131530F0E0E850FD4F84910EC0282F30E0AFEF6B
S1131540BFE00E9408192EEF30E040E050E00E9416
S1131550E018822F932F0E94C31508959091883824
S1131560911112C0E82FE695F0E0E850FC4F9491F9
S113157080FD02C09F7002C092959F70E82FF0E03A
S1131580E850FD4F84910895282F30E0AFEFBFE07D
S11315900E9408192EEF30E040E050E00E94E0186D
S11315A0822F932F089580910E388823D1F1809152
S11315B00F3890911038892BA1F510920E38809134
S11315C0233890912438853F914021F480916238EA
S11315D08F3F39F5809161388F3F29F480916038CD
S11315E080935F381BC090916338891728F488234F
S11315F051F090935F3809C090916438981718F4AB
S113160090935F3802C080935F3880915F388093F5
S1131610603880915B38816080935B3887E0809389
S1131620223808950E949516809364389091253845
S11316309923D1F0209162382F3FB1F09091633813
S1131640291710F4211104C0982F281708F4922F99
S113165090935F389093603880915B388160809379
S11316605B3887E080932238089580912638882358
S113167081F00E94DE158091273890912838A0913E
S11316802938B0912A38892B8A2B8B2B11F410928C
S1131690263808954F925F926F927F928F929F9215
S11316A0AF92BF92CF92DF92EF92FF92CF9380904E
S11316B0B7389090B838A090B938B090BA38C09183
S11316C05F38C0905C38D0905D38E0905E38F09020
S11316D05F3880910E38882359F080910F389091AB
S11316E01038009729F0019780930F3890931038A1
S11316F080915A38882319F0815080935A38809108
S11317002B3890912C38A0912D38B0912E38009719
S1131710A105B10559F00197A109B10980932B38AE
S113172090932C38A0932D38B0932E38809127387D
S113173090912838A0912938B0912A380097A105B2
S1131740B10559F00197A109B10980932738909305
S11317502838A0932938B0932A3880911C388823DC
S1131760A1F08091BB38882321F081508093BB384D
S11317700CC010921C38C093603880915B38816033
S113178080935B3881E0809322380E949516809381
S113179064380E94BF1581111CC080912338909138
S11317A02438843F21E0920751F481E08093253866
S11317B085EF91E080932338909324380EC0843FC2
S11317C021E0920750F401968093233890932438B3
S11317D004C01092233810922438E09122388E2FBE
S11317E090E0FC013197EA30F10508F05DC1EC5757
S11317F0FF4F0C94021910921B388091B5388F7EDC
S11318008093B53810922238CC2309F46EC1C0936A
S113181059386BC180916038C81798F480E090E023
S1131820A0E0BEEF8C199D09AE09BF098816990680
S1131830AA06BB0608F02DC1C80CD91CEA1CFB1C67
S113184033C181E0809322382FC180916038C8175A
S113185088F08C149D04AE04BF0438F081E08093BA
S11318602238C12CD12C76011FC1C818D908EA0826
S1131870FB081AC1C82ED12CE12CF12CFC2CEE242F
S1131880DD24CC2481E0809322380EC1809163381A
S1131890C81718F18C149D04AE04BF0408F001C1EC
S11318A08091B7389091B838A091B938B091BA38CE
S11318B00097A105B10561F48091B5388B7F8093C1
S11318C0B53881E080932238C12CD12C7601ECC04C
S11318D0C81AD90AEA0AFB0AE7C08091B5388B7F97
S11318E08093B53881E080932238C12CD12C7601C5
S11318F0DBC080916438C817E0F090915A38911198
S1131900D3C0C82ED12CE12CF12CFC2CEE24DD24E8
S1131910CC248093603880915B38816080935B38FD
S11319208091B53888608093B53881E080932238FF
S1131930BBC0C80CD91CEA1CFB1C80915A3881110D
S1131940B3C08091B538877F8093B538C093603831
S113195080915B38816080935B3881E0809322388A
S1131960A3C080916338C817E0F490915A3891115C
S11319709BC0C82ED12CE12CF12CFC2CEE24DD24B0
S1131980CC248093603880915B38816080935B388D
S11319908091B53888608093B53881E0809322388F
S11319A083C0C818D908EA08FB0880915A38811105
S11319B07BC08091B538877F8093B538C0936038F9
S11319C080915B38816080935B3881E0809322381A
S11319D06BC0CC2ED12CE12CF12CFC2CEE24DD247C
S11319E0CC2480911938882309F488C0CEEF87C0AD
S11319F0C093593891FD03C084608093B538109228
S1131A00253852C08C2F0E94870ACC2ED12CE12C71
S1131A10F12CFC2CEE24DD24CC248091B538982FB5
S1131A209F7E9093B53810922238CC2361F0209198
S1131A302538211102C0C093593881FD07C0946034
S1131A409093B53803C08B7E8093B53810922538B7
S1131A502BC08091BF389091C038A091C138B0910B
S1131A60C2380097A105B10561F00197A109B10938
S1131A708093BF389093C038A093C138B093C238D4
S1131A8013C08091603880935F3887E08093223858
S1131A900BC00F2EC12CD12CE12CFEEFFF2EF02D0C
S1131AA003C0C12CD12C760180911B388823E9F026
S1131AB04F2C552466247724842D0E94AE0A5C01A1
S1131AC081E0840D0E94AE0A4C01842D0E94AE0A6E
S1131AD0881A990AE89CC001E99C900D1124892F69
S1131AE099278A0D9B1D0E94C315C0925C38D09221
S1131AF05D38E0925E38F0925F3811C0C1E08C2FFF
S1131B000E94870A9091B538892F8F7E8093B538CB
S1131B10109222382091253821116CCF69CFCF91B2
S1131B20FF90EF90DF90CF90BF90AF909F908F90F9
S1131B307F906F905F904F90089580E18093A438D8
S1131B408EE08093A5388FEF8093A6388093A738D2
S1131B508093A8388093A9388093AA388093AB38AF
S1131B608093AC388093AD388093AE388093AF388F
S1131B708093B0388093B1388093B2388093B3386F
S1131B808093B438089565E580E698E30E94C7041D
S1131B90811156C0E0E6F8E38EEF8083818382836F
S1131BA091E09383848387E085831682178210866D
S1131BB08FEF81871586168E178E28E020A391A3B8
S1131BC092A313A214A215A216A290E897A310A69A
S1131BD0848783878287EEE6F8E32EE738E38193F0
S1131BE0E217F307E1F791E090935B38E0E6F8E35E
S1131BF08AE181A793A78FEF84A785A786A787A7E4
S1131C0080AB81AB12AA93AB84AB85AB86AB87ABBD
S1131C1080AF81AF82AF83AF14AE95AF88E086AF5B
S1131C2087AF8093A0389093A1389093A2381092F4
S1131C30A3380E949D0D80915B38866080935B3849
S1131C408FEF8093A638ECEBF8E382838183808363
S1131C5080EA8093B538809169388F3F19F480EE1B
S1131C608093B538E0E6F8E386A18093B6388EEF2A
S1131C708093593883A18093C33887A1982F907893
S1131C8090931A38807180932F380895CF93DF93FF
S1131C90EC0199819052923618F4662309F40BC62C
S1131CA00E949516382F809364382981422F50E082
S1131CB0463C510508F074C5FA01E257FF4F0C94F5
S1131CC0021990E02FEF30E0C2C510926038809185
S1131CD05B38816080935B388091B538877E8093D0
S1131CE0B53810925C3810925D3810925E381092BC
S1131CF05F3887E08093223891E020E03FEFA7C56A
S1131D008091B53882FF4DC090915F38931708F0E9
S1131D103EC095E09093223898EC90935A38E09125
S1131D206538F0E0EE0FFF1FE852FD4F45915491E6
S1131D3060E070E0440F551F661F771F440F551F66
S1131D40661F771F440F551F661F771F440F551FCB
S1131D50661F771F440F551F661F771F440F551FBB
S1131D60661F771F440F551F661F771F4093B738B0
S1131D705093B8386093B9387093BA3891E090931F
S1131D801B3880618093B53820E03FEF60C58860E0
S1131D908093B53881E08093223891E020E03FEFD2
S1131DA056C581E08093223891E020E03FEF4FC593
S1131DB08091B53882FF4FC020915F38909163388D
S1131DC0921708F03EC096E09093223898EC9093D6
S1131DD05A38E0916538F0E0EE0FFF1FE852FD4FEE
S1131DE04591549160E070E0440F551F661F771FC2
S1131DF0440F551F661F771F440F551F661F771F1B
S1131E00440F551F661F771F440F551F661F771F0A
S1131E10440F551F661F771F440F551F661F771FFA
S1131E204093B7385093B8386093B9387093BA3840
S1131E3091E090931B3880618093B53820E03FEFA8
S1131E4006C588608093B53881E08093223891E09C
S1131E5020E03FEFFCC481E08093223891E020E051
S1131E603FEFF5C48091B53882FF9EC490915F38EE
S1131E70931770F49F5F90935F38909360389091BC
S1131E805B38916090935B38877F8093B53803C04B
S1131E9088608093B53887E08093223891E020E011
S1131EA03FEFD5C48091B53882FF82C490915F38EA
S1131EB020916338291770F4915090935F38909370
S1131EC0603890915B38916090935B38877F809302
S1131ED0B53803C088608093B53887E08093223892
S1131EE091E020E03FEFB3C49091B538977F909391
S1131EF0B53880935F388093603880915B38816017
S1131F0080935B3880912B3890912C38A0912D3898
S1131F10B0912E38892B8A2B8B2B51F088E080933B
S1131F20223881E08093193891E020E03FEF8FC49C
S1131F3087E08093223891E020E03FEF88C48091CD
S1131F40B538877F8093B538E0E6F8E383818093E2
S1131F505F38808380915B38816080935B388091A7
S1131F602B3890912C38A0912D38B0912E38892B94
S1131F708A2B8B2B49F088E08093223810921938F1
S1131F8091E020E03FEF63C487E08093223891E042
S1131F9020E03FEF5CC480915F38909163389817DC
S1131FA080F01092603880915B38816080935B3858
S1131FB010925C3810925D3810925E3810925F383F
S1131FC00AC0815080935F388093603880915B3879
S1131FD0816080935B388091B538877F8093B53872
S1131FE087E08093223891E020E03FEF30C4809175
S1131FF05F38811111C0E0E6F8E3838180935F3894
S1132000808380915B38816080935B388091B538A0
S1132010877F8093B53817C0831780F48F5F8093D0
S11320205F388093603880915B38816080935B383F
S11320308091B538877F8093B53805C08091B538D5
S113204088608093B53887E08093223891E020E05F
S11320503FEFFDC381E080931C3888EC8093BB384C
S113206090E020E03FEFF3C38091593890915F38BE
S1132070981709F4A1C30E94220691E020E03FEFE3
S1132080E6C3E22FEF70F0E0E05AF74C86858F3F0D
S113209021F010920E380E9422068091B5388F7775
S11320A08093B53890E020E03FEFD1C380E090E02A
S11320B0A0E0BEEF80935C3890935D38A0935E38C7
S11320C0B0935F388EEF80935938E0E6F8E380836D
S11320D08183828391A19383848387E0858316829D
S11320E0178210868FEF848783878287168E178ED8
S11320F0EEE6F8E32EE738E38193E217F307E1F71E
S11321001092C338E0E6F8E313A210A680915B387E
S1132110816080935B38ACEBB8E38FEF12968C93BD
S1132120129711968C9311978C9380912F388F7EF0
S113213080932F3887A18F7E87A38091B5388576C9
S113214080628093B53880911A388F7E80931A38D4
S113215087E08093223890E020E03FEF78C38091BD
S11321605F388093213890E020E03FEF70C30E94F5
S1132170DB158091B53884FF23C387E08093223830
S113218090E020E03FEF63C38091213818160CF4EF
S11321901BC380936D3890E020E03FEF58C38091DB
S11321A02138811110C08091A638853509F010C3FB
S11321B00E949D0D80915B38846080935B3890E031
S11321C020E03FEF44C3813009F006C38091A63874
S11321D0853509F005C30E949D0D80915B388460AC
S11321E080935B3890E020E03FEF31C381E080933F
S11321F0263880E197E2A0E0B0E0809327389093FE
S11322002838A0932938B0932A388091B53884FFB0
S1132210EBC287E08093223890E020E03FEF17C3C1
S11322208091633890912138891728F4391718F070
S11322309093643802C0809364388091643890919C
S11322405F38891768F480935F388093603887E03B
S1132250809322388091B53888608093B5380AC05D
S11322608091B53884FF03C097E090932238877F2C
S11322708093B53880915B38816080935B3890E0BF
S113228020E03FEFE4C240918138209121382417A7
S113229018F44093213804C0821710F48093213835
S11322A0809121388093633890915F38981778F43F
S11322B0992369F080935F388093603887E0809336
S11322C022388091B53888608093B5380AC08091EF
S11322D0B53884FF03C097E090932238877F8093BA
S11322E0B53880915B38816080935B3890E020E062
S11322F03FEFADC2809121388093623880915B3882
S1132300816080935B3890E020E03FEFA0C2809131
S113231021388093613880915B38816080935B3889
S113232090E020E03FEF93C280912138803118F093
S11323308FE0809321388091213880936638809192
S11323405B38816080935B3890E020E03FEF7FC290
S113235080912138803120F08FE08093213805C0AE
S1132360811103C081E080932138809121388093CA
S1132370653880915B38816080935B3890E020E021
S11323803FEF65C280912138803540F0E0E6F8E304
S11323901782108690E020E03FEF59C2E0E6F8E3B0
S11323A0982F9F709783807790E095958795959562
S11323B087959595879595958795808790E020E0FA
S11323C03FEF45C2E22FEF70F0E0E05AF74C809106
S11323D02138868780915B38816080935B3890E0F8
S11323E020E03FEF34C2E22FEF70F0E0E05AF74C08
S11323F08FEF868780915B38816080935B3890E0B3
S113240020E03FEF24C2E22FE77081E090E002C0B9
S1132410880F991FEA95E2F7E0E6F8E3968D892B99
S1132420868F80915B38816080935B3890E020E0F8
S11324303FEF0DC2E22FE77081E090E002C0880F09
S1132440991FEA95E2F7E0E6F8E3978D892B878FE9
S113245080915B38816080935B3890E020E03FEFAF
S1132460F6C1E22FE77081E090E002C0880F991F67
S1132470EA95E2F78095E0E6F8E3968D8923868F66
S113248080915B38816080935B3890E020E03FEF7F
S1132490DEC1E22FE77081E090E002C0880F991F4F
S11324A0EA95E2F78095E0E6F8E3978D8923878F34
S11324B080915B38816080935B3890E020E03FEF4F
S11324C0C6C1809121388F3F81F48093693880910F
S11324D05B38816080935B388091B53880648093E9
S11324E0B53890E020E03FEFB2C1982F9178913059
S11324F009F07EC186958093693880915B3881604C
S113250080935B388091B5388F7B8093B53890E0A9
S113251020E03FEF9CC181E08093303890E020E0E0
S11325203FEF95C10E94140A882331F08091B53899
S113253080628093B53805C08091B5388F7D8093D3
S1132540B5388091B538282F30E090E080C1809173
S1132550B53881FF51C190E02FEF30E078C1809110
S1132560B53882FF4DC190E02FEF30E070C180910B
S1132570B53883FF49C190E02FEF30E068C10E9475
S1132580140A882349F08091B53880628093B53865
S113259090E02FEF30E05BC18091B5388F7D809360
S11325A0B53890E020E03FEF52C18091B53886FF06
S11325B02FC190E02FEF30E04AC180918038282F5E
S11325C030E090E044C180912138282F30E090E041
S11325D03EC190E026E030E03AC180918138282F56
S11325E030E090E034C18091B53888230CF014C1F8
S11325F090E02FEF30E02BC180912038282F30E07D
S113260090E025C180911F38282F30E090E01FC151
S113261080916D38282F30E090E019C190E026E0D9
S113262030E015C18091B53881FDFAC080915E38E3
S1132630882334F080915F38282F30E090E007C180
S113264080915F3890E09C012F5F3F4F90E0FFC086
S11326509C01332790E0FBC080916338282F30E041
S113266090E0F5C080916138282F30E090E0EFC011
S113267080916238282F30E090E0E9C0E0E6F8E38A
S1132680868120E1829FC00111242581AC01422B67
S11326909A0190E0DCC080916D3888230CF0C4C0AE
S11326A090E02FEF30E0D3C0E0E6F8E3808550E11E
S11326B0859FC00111242781AC01422B9A0190E02F
S11326C0C6C08091B53880FFB3C090E02FEF30E0F2
S11326D0BEC0E22FEF70F0E0E05AF74C8685282F59
S11326E030E090E0B4C080917E38282F30E090E054
S11326F0AEC080917F38282F30E090E0A8C0809150
S11327006C38282F30E090E0A2C080916B38282FDD
S113271030E090E09CC080916A38282F30E090E04F
S113272096C08091203881111FC0909121389B312F
S113273088F4913041F0E92FF0E0E05AF74C81A59C
S1132740282F30E002C020E03FEF9F5F90932138B4
S113275090E07DC09F3F09F46FC09F5F9093213844
S113276090E020E03FEF73C0813009F069C0E09150
S11327702138E13158F48E0F80932138F0E0EC5584
S1132780F74C8081282F30E090E061C0EF3F09F4DE
S11327905BC0EF5FE093213890E020E03FEF57C04B
S11327A090E020E03FEF53C091E020E03FEF4FC0C6
S11327B091E020E03FEF4BC091E020E03FEF47C0C5
S11327C090E020E03FEF43C090E020E03FEF3FC0C7
S11327D090E020E03FEF3BC090E020E03FEF37C0C7
S11327E090E020E03FEF33C090E020E03FEF2FC0C7
S11327F090E020E03FEF2BC090E020E03FEF27C0C7
S113280090E020E03FEF23C090E020E03FEF1FC0C6
S113281090E020E03FEF1BC090E020E03FEF17C0C6
S113282090E02FEF30E013C090E020E03FEF0FC0C6
S113283090E020E03FEF0BC090E020E03FEF07C0C6
S113284090E020E03FEF03C090E020E03FEF1092E3
S11328501D3880912638882389F089814BEF480FF1
S1132860423060F0853269F1109226381092273890
S1132870109228381092293810922A3880913038D2
S1132880882359F08981883941F044E6480F423061
S113289020F0813811F010923038992379F080912A
S11328A0B5388F778093B53810921C3810920E3853
S11328B0822F932F0BC080E090EF08C0822F932FBC
S11328C005C080913038882341F3E5CFDF91CF9163
S11328D00895FC012181203E18F00E948F0708957D
S11328E00E94460E08950E94C30D1092C4380895A4
S11328F0FC01808188238CF5982F9076E9F48E7101
S1132900282F30E035952795283050F480917E3873
S113291090E002C0959587952A95E2F78170089515
S113292080917F3890E02850310902C095958795B1
S11329302A95E2F781700895982F9E7F9E3FC9F0F3
S11329409C3F31F4809169388F3FA9F485E0089564
S1132950815A893290F484E008958E7790E0209132
S1132960693830E0220F331F8217930741F483E064
S1132970089582E0089580E0089580E0089580E05D
S11329800895CF93DF93EC01888180FF1BC06430EE
S113299029F4642FCE010E94240804C0642FCE01C0
S11329A00E946914811520EF920729F4898180938C
S11329B0CB3884E011C081152FEF920751F08A8340
S11329C082E00AC0643039F089810E94220683E0E3
S11329D003C083E001C083E0DF91CF910895E091CB
S11329E0C4388E2F90E08830910508F097C0FC0120
S11329F0EC5AFE4F0C94021981E08093C438109273
S1132A00C83808958091C838882309F487C0E5EC54
S1132A10F8E314821382CF010E947814882309F406
S1132A207DC040E0682F85EC98E30E94C114809338
S1132A30C4381092313808958091C93897EF980FAF
S1132A409A3608F040C08091C838882339F1109232
S1132A50C83885EC98E30E9478148823E1F020912B
S1132A60C6389091CB38291309C041E0682F85EC12
S1132A7098E30E94C1141092C43808951092C93882
S1132A8040E0682F85EC98E30E94C1148093C43819
S1132A901092313808951092C438089580913338D3
S1132AA081110DC0809131388823C1F18091C838DB
S1132AB0811102C01092C43810923138089581E017
S1132AC0809331380895833748F11092C4380895BB
S1132AD08091C938833710F11092C43808958091D9
S1132AE0C9388530D8F081E08093CA380E94B71580
S1132AF086E08093C43808958091CA3881110EC04D
S1132B000E94B1151092C93887E08093C4380895A3
S1132B108091C938893010F01092C438089580919A
S1132B20C9388F3F19F08F5F8093C9380895809317
S1132B30C53808958093C63808958091CA38089599
S1132B408093CA3808958093C83808958091C7380F
S1132B50089580E698E3089585E508958BE598E364
S1132B60089581E0809333041092450A08951092E9
S1132B703304E0E4FAE081E086838583089580915C
S1132B8028048170089580952FE09227E0E8FAE008
S1132B9084A795A781E0848308956091200A7091A9
S1132BA0210A80E090E00895609148017091490104
S1132BB080E090E008950E940F0608950895E0E0F3
S1132BC0FAE080E89EE386A397A3118281E08287DE
S1132BD08083E0E4FAE020E032E024873587118244
S1132BE080831582E0E8FAE011822FEF3FE026A708
S1132BF037A724A735A791E69083E0E4F1E02FEF0F
S1132C003FEF22873387808308951F920F920FB678
S1132C100F9211248F9381E080930B0A8093CC3818
S1132C208F910F900FBE0F901F90189588ED84BF61
S1132C301092610008950E94DB020E94DF150E9439
S1132C4073140E947B0408958091CC388823C9F0C2
S1132C501092CC380E948F150E944A0B8091113833
S1132C609091123801978093113890931238892BE0
S1132C7041F40E940F0682E390E080931138909310
S1132C80123808950E9416160E941B160E94A2165E
S1132C9078940E94D30A0E94EF140E94120B0E949F
S1132CA0350B0E942416F5CFE0E0F6E084E0828341
S1132CB090E49093A00091E09287868385E88083D6
S1132CC080E0089580910B0681700895E0911006CC
S1132CD0F0911106E858FB4F60816093CD3870E0A5
S1132CE080E090E00E94BE1723E333E343EB5FE30D
S1132CF00E944F189B01AC0160E070E08FE293E406
S1132D000E94AE1620E030E047E353E40E944F18DF
S1132D1020E030E046E952E40E941B170E948D1720
S1132D206093CE38862F90E00895E0E0F6E084E0EA
S1132D30868381E080870E9462168823E1F30E94E3
S1132D4066160895E4E1F4E08081887F84608083DE
S1132D508081877F80830E94541608955058BB2732
S1132D60AA270E94C6160C9410180E94021838F064
S1132D700E94091820F039F49F3F19F426F40C94AA
S1132D80FF170EF4E095E7FB0C94F917E92F0E9466
S1132D90211858F3BA17620773078407950720F0C0
S1132DA079F4A6F50C9443180EF4E0950B2EBA2F83
S1132DB0A02D0B01B90190010C01CA01A00111243D
S1132DC0FF27591B99F0593F50F4503E68F11A16E9
S1132DD0F040A22F232F342F4427585FF3CF46957A
S1132DE037952795A795F0405395C9F77EF41F169C
S1132DF0BA0B620B730B840BBAF09150A1F0FF0F66
S1132E00BB1F661F771F881FC2F70EC0BA0F621F51
S1132E10731F841F48F4879577956795B795F79541
S1132E209E3F08F0B0CF9395880F08F09927EE0FD6
S1132E309795879508950E942F170C9410180E9457
S1132E40091858F00E94021840F029F45F3F29F055
S1132E500C94F91751110C9444180C94FF170E9408
S1132E60211868F39923B1F3552391F3951B550B5E
S1132E70BB27AA2762177307840738F09F5F5F4F49
S1132E80220F331F441FAA1FA9F335D00E2E3AF088
S1132E90E0E832D091505040E695001CCAF72BD0A0
S1132EA0FE2F29D0660F771F881FBB1F26173707F1
S1132EB04807AB07B0E809F0BB0B802DBF01FF2723
S1132EC093585F4F3AF09E3F510578F00C94F917F0
S1132ED00C9444185F3FE4F3983ED4F386957795B9
S1132EE06795B795F7959F5FC9F7880F911D9695DC
S1132EF0879597F90895E1E0660F771F881FBB1F38
S1132F00621773078407BA0720F0621B730B840BE4
S1132F10BA0BEE1F88F7E09508950E94291888F0EF
S1132F209F5798F0B92F9927B751B0F0E1F0660F89
S1132F30771F881F991F1AF0BA95C9F714C0B130CA
S1132F4091F00E944318B1E008950C944318672F40
S1132F50782F8827B85F39F0B93FCCF386957795F9
S1132F606795B395D9F73EF49095809570956195E2
S1132F707F4F8F4F9F4F0895E89409C097FB3EF40D
S1132F8090958095709561957F4F8F4F9F4F9923B2
S1132F90A9F0F92F96E9BB279395F6958795779530
S1132FA06795B795F111F8CFFAF4BB0F11F460FFF0
S1132FB01BC06F5F7F4F8F4F9F4F16C0882311F048
S1132FC096E911C0772321F09EE8872F762F05C05C
S1132FD0662371F096E8862F70E060E02AF09A95F7
S1132FE0660F771F881FDAF7880F9695879597F9EC
S1132FF0089597F99F6780E870E060E008959FEF77
S113300080EC089500240A9416161706180609067B
S1133010089500240A94121613061406050608954A
S1133020092E0394000C11F4882352F0BB0F40F4D2
S1133030BF2B11F460FF04C06F5F7F4F8F4F9F4F12
S1133040089557FD9058440F551F59F05F3F71F094
S11330504795880F97FB991F61F09F3F79F08795FB
S11330600895121613061406551FF2CF4695F1DF84
S113307008C0161617061806991FF1CF8695710514
S1133080610508940895E894BB2766277727CB0148
S113309097F908950E94BC1808F48FEF08950E94D0
S11330A062180C9410180E94021838F00E94091833
S11330B020F0952311F00C94F9170C94FF171124A8
S11330C00C9444180E94211870F3959FC1F3950F36
S11330D050E0551F629FF001729FBB27F00DB11D98
S11330E0639FAA27F00DB11DAA1F649F6627B00D28
S11330F0A11D661F829F2227B00DA11D621F739F11
S1133100B00DA11D621F839FA00D611D221F749F1E
S11331103327A00D611D231F849F600D211D822F65
S1133120762F6A2F11249F5750409AF0F1F088238C
S11331304AF0EE0FFF1FBB1F661F771F881F9150B9
S11331405040A9F79E3F510580F00C94F9170C9458
S113315044185F3FE4F3983ED4F3869577956795DA
S1133160B795F795E7959F5FC1F7FE2B880F911DE3
S11331709695879597F90895990F0008550FAA0B0E
S1133180E0E8FEEF16161706E807F907C0F0121676
S11331901306E407F50798F0621B730B840B950B79
S11331A039F40A2661F0232B242B252B21F40895CE
S11331B00A2609F4A140A6958FEF811D811D08956B
S11331C0A1E21A2EAA1BBB1BFD010DC0AA1FBB1F27
S11331D0EE1FFF1FA217B307E407F50720F0A21B99
S11331E0B30BE40BF50B661F771F881F991F1A9406
S11331F069F760957095809590959B01AC01BD0130
S1133200CF010895EE0FFF1F0590F491E02D09946E
S1133210A29FB001B39FC001A39F700D811D112413
S1133220911DB29F700D811D1124911D08950E945E
S11332300819A59F900DB49F900DA49F800D911D1A
S1133240112408958F929F92AF92BF92CF92DF92F2
S1133250EF92FF92CF93DF93EC01688179818A81A9
S11332609B81611571058105910521F464E279ED75
S11332708BE597E02DE133EF41E050E00E947E19A9
S113328049015A019B01AC01A7EAB1E40E94171954
S11332906B017C01ACEEB4EFA50194010E94A0196E
S11332A0DC01CB018C0D9D1DAE1DBF1DB7FF03C0FE
S11332B00197A109B04888839983AA83BB839F7728
S11332C0DF91CF91FF90EF90DF90CF90BF90AF90C0
S11332D09F908F9008950E942219089580E098E3AA
S11332E00E9422190895A0E0B0E0809300389093E2
S11332F00138A0930238B09303380895052E97FB44
S11333001EF400940E94951957FD07D00E94E018FE
S113331007FC03D04EF40C949519509540953095C4
S113332021953F4F4F4F5F4F08959095809570952D
S113333061957F4F8F4F9F4F0895B7FF0C941719D6
S11133400E941719821B930B0895F894FFCF77
S113334E01000000000001000A006400701701581B
S107335E0232000033
S9030000FC
